S01F0000506F43436F6E74726F6C6C65725F415474696E793831342E737265638A
S11300001DC041C040C03FC03EC03DC03CC03BC01D
S113001058C739C038C037C036C035C034C033C003
S113002032C031C030C088C52EC02DC02CC02BC0FA
S11300302AC029C00F06A7071506B80711241FBE3A
S1130040CFEFCDBFDFE3DEBF2EE3A6E0BEE301C00A
S11300501D92A335B207E1F71EE3A0E0BEE3E0EE94
S1130060F6E102C005900D92A630B107D9F710E071
S1130070CCE1D0E003C02197FE01EBD9CA31D1070E
S1130080D1F7E0D519CBBCCF0895CF92EF92FF9270
S11300900F93E0E0F6E01082128266838081440FC1
S11300A0482B40836081A9015527CA01880F991FF5
S11300B0880F991F862B8083232B21F4433051050D
S11300C00CF403E0E0E0F6E08281082B02838281F5
S11300D0EE0CEE0CEE0CEE0CE82AE282C1820F91DB
S11300E0FF90EF90CF900895E0E0F6E080818E7F5E
S11300F08083089580911006909111060895E0E0A0
S1130100F6E082858E7F82870895E0E0F6E08285BE
S11301108D7F828714820895CF93DF93EC01E4DF0F
S1130120CE01EDDFCE01F1DFDF91CF9108958D3067
S1130130910549F028ED24BFE0E6F0E09181880FB5
S1130140892B24BF81830895809163008170089571
S1130150E0E6F0E09081892B98ED94BF8083F4DF92
S11301608111FDCF0895FC01108211821282138245
S1130170148280E090E0A0E2B1E485839683A783B3
S1130180B08781E0818708958F929F92AF92BF924A
S1130190CF92DF92EF92FF920F931F93CF93DF934F
S11301A0EC014A015B016801790120E030E04CE890
S11301B052ECC501B40150D788234CF480E090E0A0
S11301C0ACE8B2EC89839A83AB83BC8316C020E08D
S11301D030E048E452E4C501B4019DD818164CF44B
S11301E080E090E0A8E4B2E489839A83AB83BC8383
S11301F004C089829A82AB82BC8220E030E04CE861
S113020052ECC701B60128D788234CF480E090E073
S1130210ACE8B2EC8D839E83AF83B88716C020E030
S113022030E048E452E4C701B60175D818164CF41E
S113023080E090E0A8E4B2E48D839E83AF83B88726
S113024004C0CD82DE82EF82F886C980DA80EB803A
S1130250FC80A70196016D817E818F819885FCD6F3
S1130260882324F4CD82DE82EF82F886DF91CF9159
S11302701F910F91FF90EF90DF90CF90BF90AF90C0
S11302809F908F900895CF92EF920F931F93CF93E7
S1130290DF93EC0179DFEA86CB86EE20C1F0E0E063
S11302A0F4E0408181E090E09C0102C0220F331F02
S11302B0CA94E2F7242B208324810B8402C0880F84
S11302C0991F0A94E2F780958223848317C0E0E2A1
S11302D0F4E0408181E090E09C0102C0220F331FD2
S11302E0CA94E2F7242B208324810B8402C0880F54
S11302F0991F0A94E2F7809582238483DF91CF913A
S11303001F910F91EF90CF900895CF92DF92EF92CB
S1130310FF92CF93DF93EC016A017B019A01AB0159
S113032069817A818B819C81F6D718161CF481E04F
S1130330898752C02D813E814F815885C701B601FE
S11303408BD688231CF48985811146C0198621C067
S11303508A85882379F0E0E0F4E0248181E090E06C
S11303600B8402C0880F991F0A94E2F7822B8483BE
S113037081E036C0E0E2F4E0248181E090E00B8487
S113038002C0880F991F0A94E2F7822B848381E0CC
S113039027C08A85882381F0E0E0F4E0248181E0AD
S11303A090E00B8402C0880F991F0A94E2F78095AD
S11303B08223848380E014C0E0E2F4E0248181E0BD
S11303C090E00B8402C0880F991F0A94E2F780958D
S11303D08223848380E004C088818823D1F2B8CF4B
S11303E0DF91CF91FF90EF90DF90CF900895FC01C3
S11303F061817281838194810895FC016581768194
S1130400878190850895FC011086118612861386D3
S11304100C963ADE0895CF92DF92EF92FF920F93FB
S11304201F93CF93DF931F92CDB7DEB7FC012083D8
S1130430318342835383E482F5820683178368946D
S1130440CC24C1F8D12CE12CF12C07E010E020E001
S113045030E041E050E0CE01019617DECE01019676
S11304605BDE0F90DF91CF911F910F91FF90EF9082
S1130470DF90CF900895CF93DF93EC010C963ADE92
S1130480BC0180E090E095D62C813D814E815F8156
S113049076D5288139814A815B81E3D5688779875C
S11304A08A879B87DF91CF910895FC01148220E114
S11304B0E0EDF6E9DC01169601900D922A95E1F73C
S11304C0FC0140835183628373830895DC016111CD
S11304D00FC0E0E0FAE08181887F81838181842BF1
S11304E0818315964C9315978285816082870BC012
S11304F0E0E0FAE093819E7F9383938191609383FC
S113050092859360928714966C930895FC0184817C
S1130510811106C0E0E0FAE0808181608083089563
S1130520E0E0FAE080818160808308952F923F9219
S11305304F925F926F927F928F929F92AF92BF92EF
S1130540CF92DF92EF92FF920F931F93CF93DF939B
S11305508C012A013B01FC016081718182819381BC
S113056028D64B015C01F8012580E8012696312C40
S11305706991799180E090E01CD6A3019201D0D6D4
S11305809B01AC01C501B4016CD523E738E641E811
S11305905FE3C6D620E030E0A901F2D4DBD56B01DD
S11305A07C01222019F0F3E02F1207C0C114D104FA
S11305B081E0E806F10430F409C06F3F7F4F8140C9
S11305C0910520F03394F8E03F12D2CFE0E0FAE056
S11305D08081817F80832081C32DD0E0CE01880F6C
S11305E0991F822B8083F8018581813071F018F086
S11305F0833031F037C0C092260AD092270A5BC0FC
S1130600C092260AD092270A56C0C701B601D1D596
S113061020E030E040E05FE383D69CD5E0E0FAE000
S113062060A771A762A773A764A775A7F801608183
S1130630718182819381BDD54B015C012396CC0FDE
S1130640DD1FC00FD11FA881B981A7019601F7D67C
S1130650B0D59B01AC0194D49B01AC01C501B4019C
S113066000D53EC0C701B601A4D520E030E040E08B
S11306705FE356D66FD56093260A7093270AF80174
S1130680608171818281938194D54B015C012396B1
S1130690CC0FDD1FC00FD11FA881B981A70196011E
S11306A0CED687D59B01AC016BD49B01AC01C501AF
S11306B0B401D7D415C02396CC0FDD1FC00FD11FB2
S11306C0A881B981A7019601BAD69B01AC01F801B2
S11306D0608171818281938190D6CA01B90169D503
S11306E0DF91CF911F910F91FF90EF90DF90CF900A
S11306F0BF90AF909F908F907F906F905F904F903E
S11307003F902F900895FC01848181111BC0858145
S1130710882311F0833059F460817181828193813F
S113072048D520E03FEF4FE75CE49BD40895608117
S11307307181828193813DD520E03FEF4FEF5CE4EE
S113074090D40895608171818281938132D520E0B3
S113075030E04FE758E485D40895FC012481211149
S113076006C0608171818281938123D50895FC0143
S113077060817181828193811CD50895CF92DF922B
S1130780EF92FF92CF93DF93EC016A017B01E5DFE7
S1130790A7019601C0D5882364F0CE01B4DF9B0184
S11307A0AC01C1E0C701B601B6D588231CF4C0E092
S11307B001C0C0E08C2FDF91CF91FF90EF90DF90CC
S11307C0CF9008954F925F926F927F929F92AF92D3
S11307D0BF92CF92DF92EF92FF920F931F93CF932A
S11307E0DF935C016A017B01922EC8DF882309F440
S11307F04EC0F5018481813009F44EC060E070E0A0
S113080080E89FEB6BC0F801619171918F0180E0EA
S113081090E0CFD4A701960183D59B01AC01C3011D
S1130820B2011FD497D46F3F710541F038F021967F
S1130830C830D10541F702C0C0E0D0E0E0E0FAE002
S11308408081817F80838C2F880F8083911003C0E7
S11308506093260A02C06093270A2396CC0FDD1FFB
S1130860CA0DDB1D88819981689F9001699F300DB5
S1130870789F300D112440E050E0F50160817181D2
S113088082819381BAD5CA01B90193D427C060E0AB
S113089070E080E89FEB22C0F50160817181828164
S11308A0938187D42B013C01F5016681778180E037
S11308B090E07FD4A701960133D59B01AC01C3011D
S11308C0B201CFD347D46F3F710509F008F4B4CF18
S11308D08501085F1F4FC1E0D0E095CFDF91CF9134
S11308E01F910F91FF90EF90DF90CF90BF90AF904A
S11308F09F907F906F905F904F900895CF92DF927A
S1130900EF92FF921F93CF93DF93EC016A017B0177
S1130910122F34DF882371F08C81811105C0B70157
S1130920A601CE0103DE0AC0212FB701A601CE0124
S113093049DF04C060E070E080E89FEBDF91CF9175
S11309401F91FF90EF90DF90CF9008950F931F9326
S1130950CF93DF93EC01062F142F1A821B8281E0C0
S11309608D83611101C001E0802F90E084D58883DC
S113097099830C831886198681E08B87111101C035
S113098011E0812F90E077D58E839F831A8780E5CD
S11309908C87DF91CF911F910F910895662331F0D9
S11309A0E0E0F2E08181806181830895E0E0F2E09B
S11309B081818F7E81830895CF93DF93C62FD42FB7
S11309C0622FECDFDD2341F080E280930104E0E25A
S11309D0F4E088E081838583E0E1F8E08185806844
S11309E08187818580648187818580628187818513
S11309F082608187818581608187CC0FC4877894E8
S1130A00DF91CF91089590911B08892F881F882723
S1130A10881F089580911B08809581700895FC01BA
S1130A208281811109C0238130E02F5F3F4F4481CF
S1130A3050E024173507E9F0438190E0242F30E09B
S1130A402F5F3F4F82179307A1F08581882321F000
S1130A5013821282158206C04F5F43838481481338
S1130A6001C0138283810190F081E02DE80FF11D14
S1130A7060830895FC012085211108C0818590E0E0
S1130A800196428550E08417950771F030E0418566
S1130A9050E04F5F5F4F2417350729F0CF010696CA
S1130AA0BEDF21E001C020E0822F0895CF92DF92C3
S1130AB0EF92FF921F93CF93DF93442399F06C013D
S1130AC0EB014150E42EF12C8FEFE81AF80AE60E00
S1130AD0F71E10E06991C601CDDF180FCE15DF05B2
S1130AE0C9F701C010E0812FDF91CF911F91FF90D2
S1130AF0EF90DF90CF900895FC018581811113C0A0
S1130B009281A081B181A90FB11D8C91238192138F
S1130B1003C091E0958308959F5F9283248192138B
S1130B2003C01282089580E00895E6DF08950696D2
S1130B30E3DF80931D0808951F920F920FB60F9262
S1130B4011242F933F934F935F936F937F938F93CE
S1130B509F93AF93BF93EF93FF9386E09EE35ADF97
S1130B60882369F081E08093113E86E09EE3C4DF30
S1130B70B4D0E0E1F8E083858064838721C086E017
S1130B809EE341DF8823B9F080911B0881FD06C0F4
S1130B9060911D0886E09EE342DF07C080911B0838
S1130BA081FF03C086E09EE3C2DFE0E1F8E08385D5
S1130BB08068838705C0E0E1F8E0838580648387EB
S1130BC0FF91EF91BF91AF919F918F917F916F9121
S1130BD05F914F913F912F910F900FBE0F901F90F7
S1130BE01895EF92FF920F931F93CF93DF934423B3
S1130BF079F07C01EB014150042F10E00F5F1F4F8F
S1130C00060F171FC70178DF8993C017D107D1F7E3
S1130C10DF91CF911F910F91FF90EF90089545E0E0
S1130C2065E086E09EE392DE0895CF93DF93C6E00D
S1130C30DEE38E819F81B7D488819981B4D4DF911A
S1130C40CF91089580E090E083DA89E090E06FDA54
S1130C5020E041E060E286E09EE3AEDEE12CF12C90
S1130C6008E412E420E030E048EC52E461E070E093
S1130C708CE29EE3D0DB20E030E048EC52E462E01A
S1130C8070E08FE19EE3C7DB8CE29EE3F4DB8FE14F
S1130C909EE3F1DB0F2EF3E0CF2EF02DEE24E39450
S1130CA000E010E028EC31E440E050E060E771E45B
S1130CB083E19EE3E8DA40E060E089E39EE306DC5A
S1130CC020E040E050E060E87FE389E39EE316DE45
S1130CD089E39EE31BDC7894FFCFCF92DF92EF92FF
S1130CE0FF920F931F93CF93DF9300D000D0CDB723
S1130CF0DEB7833109F45EC058F48031F9F018F49A
S1130D008823A9F0D2C0813119F1823139F1CDC0E3
S1130D108B3109F492C020F48A3109F474C0C5C03F
S1130D208C3109F4A4C08E3F09F4B9C0BEC088E078
S1130D308093260480E280930504B7C086E09EE396
S1130D40F4DE91E0811101C090E09093133EADC0B8
S1130D506091133E86E09EE38DDEA7C044E0BE01B1
S1130D606F5F7F4F86E09EE33CDF69817A818B81F0
S1130D709C8121D220E030E040E251E472D16B0149
S1130D807C0144E0BE016F5F7F4F86E09EE329DF74
S1130D9069817A818B819C810ED220E030E040E22F
S1130DA051E45FD18B019C01B701A60183E19EE36D
S1130DB0EBD97BC083E19EE31ADB20E030E040E224
S1130DC051E4AED2C7D169837A838B839C8344E098
S1130DD0BE016F5F7F4F86E09EE368DE83E19EE3A2
S1130DE00CDB20E030E040E251E49AD2B3D16983D5
S1130DF07A838B839C8344E0BE016F5F7F4F86E0E0
S1130E009EE354DE52C020E030E040E251E46091C1
S1130E10343E7091353E8091363E9091373E80D27B
S1130E2092D169837A838B839C8344E0BE016F5F94
S1130E307F4F86E09EE33ADE38C020E030E040E2B7
S1130E4051E46091273E7091283E8091293E909113
S1130E502A3E66D278D169837A838B839C8344E06B
S1130E60BE016F5F7F4F86E09EE320DE1EC044E03C
S1130E70BE016F5F7F4F86E09EE3B3DE69817A81B6
S1130E808B819C8196D120E030E040E251E4E9D0AE
S1130E90AB01BC0120E089E39EE330DD06C080E2C3
S1130EA08093060488E0809325042496CDBFDEBF9A
S1130EB0DF91CF911F910F91FF90EF90DF90CF9032
S1130EC008951F920F920FB60F9211242F933F9300
S1130ED04F935F936F937F938F939F93AF93BF933E
S1130EE0EF93FF938CE29EE3C6DA8FE19EE3C3DACD
S1130EF02091273E3091283E4091293E50912A3E30
S1130F006091343E7091353E8091363E9091373EEB
S1130F1037D020E030E040E05FE302D2AB01BC0117
S1130F2083E19EE3F2D981E080930B0AFF91EF9174
S1130F30BF91AF919F918F917F916F915F914F91ED
S1130F403F912F910F900FBE0F901F90189540E086
S1130F505AE668E170E089E39EE3A7DA8CE29EE357
S1130F6052DA8FE19EE34FDA83E19EE3FCD80895E1
S1130F708BE29EE3D1D888E39EE3CED808955058FF
S1130F80BB27AA270E94D7070C9451090E94430942
S1130F9038F00E944A0920F039F49F3F19F426F4EE
S1130FA00C9440090EF4E095E7FB0C943A09E92F00
S1130FB00E94620958F3BA176207730784079507FA
S1130FC020F079F4A6F50C9484090EF4E0950B2E28
S1130FD0BA2FA02D0B01B90190010C01CA01A00187
S1130FE01124FF27591B99F0593F50F4503E68F1E2
S1130FF01A16F040A22F232F342F4427585FF3CF23
S1131000469537952795A795F0405395C9F77EF4F3
S11310101F16BA0B620B730B840BBAF09150A1F03C
S1131020FF0FBB1F661F771F881FC2F70EC0BA0FC2
S1131030621F731F841F48F4879577956795B7954A
S1131040F7959E3F08F0B0CF9395880F08F0992745
S1131050EE0F9795879508950E94160908F481E08C
S113106008950E9445080C9451090E944A0958F0B9
S11310700E94430940F029F45F3F29F00C943A0997
S113108051110C9485090C9440090E94620968F37B
S11310909923B1F3552391F3951B550BBB27AA272D
S11310A062177307840738F09F5F5F4F220F331F67
S11310B0441FAA1FA9F335D00E2E3AF0E0E832D02F
S11310C091505040E695001CCAF72BD0FE2F29D032
S11310D0660F771F881FBB1F261737074807AB0704
S11310E0B0E809F0BB0B802DBF01FF2793585F4F79
S11310F03AF09E3F510578F00C943A090C94850916
S11311005F3FE4F3983ED4F3869577956795B7955A
S1131110F7959F5FC9F7880F911D9695879597F965
S11311200895E1E0660F771F881FBB1F62177307DE
S11311308407BA0720F0621B730B840BBA0BEE1FF3
S113114088F7E09508950E94AA086894B1110C9458
S1131150850908950E946A0988F09F5798F0B92F6D
S11311609927B751B0F0E1F0660F771F881F991FD8
S11311701AF0BA95C9F714C0B13091F00E948409ED
S1131180B1E008950C948409672F782F8827B85FFD
S113119039F0B93FCCF3869577956795B395D9F730
S11311A03EF490958095709561957F4F8F4F9F4F3A
S11311B00895E89409C097FB3EF490958095709546
S11311C061957F4F8F4F9F4F9923A9F0F92F96E98F
S11311D0BB279395F695879577956795B795F11104
S11311E0F8CFFAF4BB0F11F460FF1BC06F5F7F4FA1
S11311F08F4F9F4F16C0882311F096E911C07723B3
S113120021F09EE8872F762F05C0662371F096E8BB
S1131210862F70E060E02AF09A95660F771F881F8A
S1131220DAF7880F9695879597F90895990F00082E
S1131230550FAA0BE0E8FEEF16161706E807F907A4
S1131240C0F012161306E407F50798F0621B730B3F
S1131250840B950B39F40A2661F0232B242B252BC0
S113126021F408950A2609F4A140A6958FEF811D63
S1131270811D089597F99F6780E870E060E0089504
S11312809FEF80EC089500240A941616170618069A
S11312900906089500240A94121613061406050676
S11312A00895092E0394000C11F4882352F0BB0F07
S11312B040F4BF2B11F460FF04C06F5F7F4F8F4F6A
S11312C09F4F089557FD9058440F551F59F05F3FA5
S11312D071F04795880F97FB991F61F09F3F79F054
S11312E087950895121613061406551FF2CF4695D6
S11312F0F1DF08C0161617061806991FF1CF869558
S11313007105610508940895E894BB27662777273B
S1131310CB0197F908950E94160908F48FEF0895F8
S11313200E94A3090C9451090E94430938F00E94B9
S11313304A0920F0952311F00C943A090C944009C1
S113134011240C9485090E94620970F3959FC1F3DE
S1131350950F50E0551F629FF001729FBB27F00D5F
S1131360B11D639FAA27F00DB11DAA1F649F6627B4
S1131370B00DA11D661F829F2227B00DA11D621F03
S1131380739FB00DA11D621F839FA00D611D221FBD
S1131390749F3327A00D611D231F849F600D211DA1
S11313A0822F762F6A2F11249F5750409AF0F1F024
S11313B088234AF0EE0FFF1FBB1F661F771F881F8D
S11313C091505040A9F79E3F510580F00C943A0982
S11313D00C9485095F3FE4F3983ED4F386957795A2
S11313E06795B795F795E7959F5FC1F7FE2B880F33
S11313F0911D9695879597F90895A1E21A2EAA1B37
S1131400BB1BFD010DC0AA1FBB1FEE1FFF1FA217B0
S1131410B307E407F50720F0A21BB30BE40BF50BAD
S1131420661F771F881F991F1A9469F76095709536
S1131430809590959B01AC01BD01CF0108950FD01B
S1131440A59F900DB49F900DA49F800D911D112414
S11314500895EE0FFF1F0590F491E02D0994A29FCB
S1131460B001B39FC001A39F01D0B29F700D811D35
S11314701124911D08950F931F93CF93DF9382300E
S1131480910510F482E090E0E091513EF091523EDB
S113149020E030E0A0E0B0E0309719F140815181C4
S11314A00281138148175907C8F08417950769F416
S11314B0109731F012960C93129713961C9327C031
S11314C00093513E1093523E22C02115310519F06C
S11314D04217530718F49A01BD01EF01DF01F80127
S11314E0DBCF21153105F9F0281B390B24303105E8
S11314F080F48A819B816115710521F0FB0182834F
S1131500938304C08093513E9093523EFE013296E1
S113151044C0FE01E20FF31F8193919322503109DD
S1131520288339833AC020914F3E3091503E232B7B
S113153041F42091023E3091033E20934F3E30937C
S1131540503E2091003E3091013E2115310541F479
S11315502DB73EB74091043E5091053E241B350BF8
S1131560E0914F3EF091503EE217F307A0F42E1B9A
S11315703F0B2817390778F0AC014E5F5F4F2417F3
S1131580350748F04E0F5F1F40934F3E5093503E37
S11315908193919302C0E0E0F0E0CF01DF91CF911D
S11315A01F910F910895CF93DF93009709F481C0A1
S11315B0FC01329712821382A091513EB091523EA7
S11315C0109781F420813181820F931F20914F3E27
S11315D03091503E2817390751F5E0934F3EF09370
S11315E0503E67C0ED0120E030E0CE17DF0740F445
S11315F04A815B819E0141155105F1F0EA01F5CF65
S1131600C283D38340815181840F951FC817D907A2
S113161059F488819981840F951F02968083918360
S11316208A819B81828393832115310529F4E09378
S1131630513EF093523E3DC0E901EA83FB83499158
S11316405991C40FD51FEC17FD0761F48081918176
S1131650840F951F0296E90188839983828193817F
S11316608A839B83E0E0F0E012968D919C9113971E
S1131670009719F0FD01DC01F7CF8D919C91119732
S11316809D012E5F3F4F820F931F20914F3E30915B
S1131690503E2817390769F4309729F41092513EC7
S11316A01092523E02C012821382A0934F3EB09316
S11316B0503EDF91CF91089510E0CCE1D0E003C01B
S11316C0FE01C7DE2196CE31D107D1F7F894FFCFC2
S11316D001000200040008001000400000010004A2
S10916E00000533E20004F
S9030000FC
