:100000001BC03FC03EC03DC0F3C73BC03AC039C073
:1000100038C037C036C035C034C033C032C031C03C
:1000200030C02FC02EC0BFC72CC02BC02AC029C0D3
:1000300028C027C026082C0811241FBECFEFCDBF33
:10004000DFE3DEBF2FE3A6E0BEE301C01D92A03FC9
:10005000B207E1F71EE3A0E0BEE3E2E7F8E102C089
:1000600005900D92A630B107D9F710E0CBE1D0E0B2
:1000700003C02197FE01A3DACA31D107D1F78AD78D
:10008000C5CBBECF262FFC0160818181928140E0EB
:10009000079609D60895CF92DF92EF92FF920F93C1
:1000A0001F93FC0160834183528303831483258360
:1000B0003683C782D086E186F28660E070E0E2DFB8
:1000C0001F910F91FF90EF90DF90CF9008952F92A6
:1000D0003F924F925F926F927F928F929F92AF92D8
:1000E000BF92CF92DF92EF92FF920F931F93CF9325
:1000F000DF93EC01A42EB52E062F172FFF84E8887E
:10010000D988CA88242F352F462F572F6F2D7E2D43
:100110008D2D9C2D73D9181624F0FA2CEB2CD02E93
:10012000C12E1B850C853D842E84212F302F432D1D
:10013000522D6F2D7E2D8D2D9C2D60D9181624F0FB
:100140001F2D0E2D3D2C2C2C8F809884A984BA84D1
:1001500020E030E0A901C501B401F1D781111DC033
:1001600020E030E046E153E4612F702F832D922D83
:1001700079D720E030E040E852E445D92B813C813A
:100180004D815E81E1D720E030E040E852E46AD75B
:1001900090584CD8CE0176DF56C0CB80DC80ED8005
:1001A000FE80212F302F432D522DC701B6015AD783
:1001B00020E030E046E153E456D798D92B013C01CA
:1001C00020E030E040E850E4C501B4011CD99B01B7
:1001D000AC01C701B60147D7212F302F432D522D37
:1001E00041D720E030E041EE53E43DD77FD99B0179
:1001F000AC01C301B20107D99B01AC01C701B60133
:1002000032D7212F302F432D522D2CD70FD88B01D1
:100210000024169507950794169507950794102FB7
:10022000002DA7019601C701B6011DD76B017C0106
:10023000B801110F880B990B31D8A701960184D70B
:10024000F5D7CE011FDFDF91CF911F910F91FF9066
:10025000EF90DF90CF90BF90AF909F908F907F9066
:100260006F905F904F903F902F900895CF93DF93C2
:10027000EC01CA01688349835A8346E007961ED57C
:10028000688189819A8120EB40E407960CD5DF9143
:10029000CF910895FC0160818181928148E00796A9
:1002A0000DD50895FC01838108950F931F93CF937B
:1002B000DF93EC0189819A8140E1688107961BD523
:1002C0008C01000F111FCE01EDDF682F70E0C80117
:1002D00062D980E090E0E0D720E030E040E951E4EE
:1002E00033D7ABD7CB01DF91CF911F910F910895F9
:1002F0001F93CF93DF93EC01162F6B8389819A8133
:1003000040E068810796E6D4807F21F4112321F034
:1003100021E003C021E001C020E0688189819A8149
:1003200040E00796C0D4DF91CF911F910895CF92FE
:10033000DF92EF92FF920F931F93FB01642FC12C6A
:10034000D12C760100E010E523E437E4AF01A3DE11
:100350001F910F91FF90EF90DF90CF900895FC01D7
:1003600063897489858996890895CF93DF93EC0119
:10037000CB01BA0120E030E040E85FE373D69B0197
:10038000AC0160E070E583E497E4DED6AB01BC012C
:10039000CE019DDEDF91CF91089580E2089584E43F
:1003A00098E90895AF92BF92CF92DF92EF92FF92B9
:1003B0000F931F93CF93DF93EC01B62E142FF22EE1
:1003C000E881F9810680F781E02D0995181748F436
:1003D000E881F9810680F781E02DCE010995A82EEC
:1003E00001C0A12EFF2009F1EA80FB808A2D90E058
:1003F000ECD88A839B83E114F104F1F120E08C8135
:10040000811708F0812F281768F4EA81FB81822F79
:1004100090E0E80FF91FD701A80FB91F8C918083D6
:100420002F5FEDCFC70169D927C08A819B8165D92C
:100430008A2D90E0CAD88A839B8310E0E881F981F5
:100440000680F781E02DCE0109951817A8F4CA801F
:10045000DB80E12EF12CCE0CDF1CE881F9810084D9
:10046000F185E02DCE0109958E0D9F1DFC01808147
:10047000F60180831F5FE2CFAC82002331F0E0E021
:10048000F2E081818061818305C0E0E0F2E081815A
:100490008F7E8183BB0CE0E1F8E0B48683EE818738
:1004A00083E1809313017894DF91CF911F910F9195
:1004B000FF90EF90DF90CF90BF90AF900895209184
:1004C0001B082174213429F4E0E1F8E0228523603F
:1004D000228720911B0822782238C1F4DC0115966E
:1004E0002C91159714963C911497231740F412966B
:1004F000ED91FC911397E20FF11D208101C020E0E6
:1005000020931D08FC0125812F5F258320911B0866
:100510002278203829F5DC0116962C911697222393
:10052000B1F040911D0815962C91159714963C91A9
:100530001497231738F41296ED91FC911397E20F5C
:10054000F11D4083FC0125812F5F258309C0209187
:100550001D08DC0115962C93159721E016962C9317
:1005600020911B082174203439F4E0E1F8E0228561
:1005700022602287FC01168261E007967AD30895F3
:10058000CF93DF93EC0160E0079673D3CF52DE4F39
:10059000E881F98194818A81892B8483DF91CF91CD
:1005A0000895633009F450C028F4613061F062307E
:1005B00051F1D0C0653009F489C008F466C06630D6
:1005C00009F4A6C0C7C0DC01A652BE4FED91FC9154
:1005D0001197348112962C911297232B2483139711
:1005E000ED91FC911197348112962C911297232B47
:1005F00024831397ED91FC911197348112962C91DD
:10060000232B2483C9C0DC01A652BE4FED91FC917F
:100610001197348112962C911297232B24831397D0
:10062000ED91FC911197348112962C911297232B06
:1006300024831397ED91FC911197348112962C919C
:10064000209523232483A8C0DC01A652BE4FED9140
:10065000FC911197348112962C911297232B2483AD
:100660001397ED91FC911197348112962C9112976A
:100670002095232324831397ED91FC9111973481C6
:1006800012962C91232B248387C0DC01A652BE4FE7
:10069000ED91FC911197348112962C91129720952F
:1006A000232324831397ED91FC91119734811296A3
:1006B0002C911297232B24831397ED91FC91119782
:1006C000348112962C91232B248366C0DC01A65220
:1006D000BE4FED91FC911197348112962C91129797
:1006E0002095232324831397ED91FC911197348156
:1006F00012962C911297232B24831397ED91FC9142
:100700001197348112962C9120952323248344C081
:10071000DC01A652BE4FED91FC91119734811296E7
:100720002C9112972095232324831397ED91FC910C
:100730001197348112962C911297209523232483AC
:100740001397ED91FC911197348112962C91232BE4
:10075000248322C0DC01A652BE4FED91FC9111977B
:10076000348112962C91129720952323248313977A
:10077000ED91FC911197348112962C91129720954E
:10078000232324831397ED91FC91119734811296C2
:100790002C91209523232483493009F450C028F458
:1007A000473061F0483059F1D2C04B3009F48AC06B
:1007B00008F466C04C3009F4A7C0C9C0DC01AD51D3
:1007C000BE4FED91FC911197348112962C911297A6
:1007D000232B24831397ED91FC911197348112966A
:1007E0002C911297232B24831397ED91FC91119751
:1007F000948112968C918095892384830895DC01DD
:10080000AD51BE4FED91FC911197348112962C9110
:100810001297232B24831397ED91FC911197348128
:1008200012962C911297232B24831397ED91FC9110
:100830001197948112968C91892B84830895DC0101
:10084000AD51BE4FED91FC911197348112962C91D0
:1008500012972095232324831397ED91FC911197F0
:10086000348112962C911297232B24831397ED91A8
:10087000FC911197948112968C91892B8483089511
:10088000DC01AD51BE4FED91FC9111973481129670
:100890002C9112972095232324831397ED91FC919B
:1008A0001197348112962C911297232B248313973E
:1008B000ED91FC911197948112968C9180958923EA
:1008C00084830895DC01AD51BE4FED91FC911197E9
:1008D000348112962C911297209523232483139709
:1008E000ED91FC911197348112962C9112972095DD
:1008F000232324831397ED91FC91119794811296F1
:100900008C91892B84830895DC01AD51BE4FED910C
:10091000FC911197348112962C91129720952323E4
:1009200024831397ED91FC911197348112962C91A9
:1009300012972095232324831397ED91FC9111970F
:10094000948112968C918095892384830895DC018B
:10095000AD51BE4FED91FC911197348112962C91BF
:100960001297232B24831397ED91FC9111973481D7
:1009700012962C91209523232483FC01E352FE4FF1
:10098000A081B18114969C9114978281892B149631
:100990008C93089588969BDB0895CF92DF92EF9217
:1009A000FF920F931F93CF93DF938C01EC012B9653
:1009B000CE0170DCF801E253FE4FA081B1811896A0
:1009C0009C9182818923B1F3CE016FDCBC0180E070
:1009D00090E062D46B017C01C8010F96C0DC9B01E2
:1009E000AC01C701B601B0D3DF91CF911F910F9138
:1009F000FF90EF90DF90CF90089560E070E0CB0122
:100A0000089560E070E0CB010895CF92DF92EF92FD
:100A1000FF92CF93DF93EC01CE01BFDF6B017C012E
:100A200020E030E040E050E48AD388236CF4A70152
:100A3000960160E070E080E090E486D3AB01BC01F9
:100A4000CE010F9692DC0BC060E0CE010B9650DC1D
:100A500040E050E060E070E4CE010F9686DCB70124
:100A6000A601CE01CADFAB01BC01CE01CADFAB01DA
:100A7000BC01CE018FDF20E030E0A901C701B60143
:100A8000BDD418164CF2DF91CF91FF90EF90DF901C
:100A9000CF900895EF92FF920F931F93CF93DF9320
:100AA0008C0161E00796E5D0C0E0D0E0CC30D10504
:100AB00014F5FE01E85CF74680818823D1F060E000
:100AC00078018BE0E80EF11CC70112DC40E050E039
:100AD00060E070E4C8010F9648DC40E06C2F6F5F67
:100AE000C8015FDDC80191DFC701DFDBF80183AF1B
:100AF00094AF2196DBCFDF91CF911F910F91FF90A3
:100B0000EF90089523E1FB01B896DC0101900D926E
:100B10002A95E1F70895FC0163857485858596859E
:100B200008957F928F929F92AF92BF92CF92DF9261
:100B3000EF92FF920F931F93CF93DF93CDB7DEB762
:100B40006797CDBFDEBF5C01862E8C01DC01ED9185
:100B5000FC910680F781E02D0995813150F0D50197
:100B6000ED91FC910680F781E02DC5010995782E65
:100B700003C06894772474F8F50182819381BDD510
:100B8000872D90E022D5D50112968D939C931397D3
:100B9000912CD801ED91FC910680F781E02DC801E0
:100BA00009959816B8F4F801C280D380E92CF12C8D
:100BB000CE0CDF1C0190F081E02D0084F185E02D4A
:100BC000C80109958E0D9F1DDC018C91F601808373
:100BD0009394DFCFD50114967C92E0E0F2E081811E
:100BE0008F7E8183880CE0E1F8E0848683EE818744
:100BF00083E1809313017894E0E2F4E082898960D4
:100C0000828BB501CE0105967DDFC12CD12C7601FA
:100C100000E010E02AE734E4A50168E1CE01059682
:100C20003ADAC50178DF69837A838B839C83A501D7
:100C300060E4CE0101961ADBB701A601C501AADE68
:100C40004EE4B501C5010F9672DB6796CDBFDEBFDE
:100C5000DF91CF911F910F91FF90EF90DF90CF9098
:100C6000BF90AF909F908F907F900895FC01638319
:100C70000895DC0112966C93662341F0E0E1F8E000
:100C800083ED838381858E7F81870895E0E1F8E09D
:100C900023812E7F2383DC0113968C91880F848718
:100CA00083EE81870895660FE0E1F8E0678340876F
:100CB0008091150883FF209318080895660F6093AC
:100CC00017088091150883FF4093180883E08093EC
:100CD00014080895862F880FE0E1F8E087834087A5
:100CE00081E0848370E0660F771F6160678383E033
:100CF000848380850895862F880FE0E1F8E087835C
:100D0000408781E0848370E0660F771F61606783AE
:100D1000208580E0922F22E02483208537E03483F1
:100D2000822B0895FFCFFC0190911B0891749134A0
:100D300041F4A0E1B8E01A968C911A9783601A9654
:100D40008C9390911B089278923881F485819481DC
:100D5000891730F4A281B381A80FB11D8C9101C015
:100D600080E080931D0885818F5F858390911B08AB
:100D700092789038B9F48681882379F020911D0803
:100D800085819481891728F4A281B381A80FB11DB0
:100D90002C9385818F5F858305C080911D08858395
:100DA00081E0868390911B089174903449F4A0E10E
:100DB000B8E01A968C911A9782601A968C931682D4
:100DC00008958F929F92AF92BF92EF92FF920F93EE
:100DD0001F93CF93DF93EC018B01019709F0C0C003
:100DE0006F3F7F4F09F0BCC00F2EF6E0EF2EFEE301
:100DF000FF2EF02DD70115961C92159716961C9272
:100E0000169719961C92199788E298E98D939C93EE
:100E1000119786E398E917968D939C9318975296AD
:100E20008D909D90AD90BC90559720E030E046E1CC
:100E300053E4C501B40117D1F701628F738F848F1A
:100E4000958F20E030E040E85CE3C501B401DBD2DF
:100E500020E030E046E153E406D1D7015E966D9381
:100E60007D938D939C9391979B968D909D90AD9043
:100E7000BC909E9720E030E046E153E4C501B40108
:100E8000F2D0F70163AB74AB85AB96AB20E030E0FA
:100E900040E85CE3C501B401B6D220E030E046E1B1
:100EA00053E4E1D0D701D7966D937D938D939C93B6
:100EB000DA9780E991E0E1E4FEE3DF019C011D9215
:100EC00021503040E1F7A0E2B4E0A093D13FB093CD
:100ED000D23F94E09093D33F12969C931297E0E018
:100EE000F4E0E093D43FF093D53F80E88093D63F81
:100EF0008283A093D73FB093D83F88E08093D93FB7
:100F000011968C93E093DA3FF093DB3F20E420933B
:100F1000DC3F2183E093DD3FF093DE3F20E120932F
:100F2000DF3F2183E093E03FF093E13F20E2209315
:100F3000E23F2183E093E33FF093E43F22E02093FC
:100F4000E53F2183E093E63FF093E73F9093E83F4E
:100F50009183E093E93FF093EA3F8093EB3F8183F5
:100F6000CD2B69F40F3F1F4F51F4E6E0FEE386E31B
:100F700098E98783908788E698E980839183DF9159
:100F8000CF911F910F91FF90EF90BF90AF909F90E6
:100F90008F90089561E586E09EE3C3DD789486E056
:100FA0009EE378DDFCCF1F920F920FB60F921124B3
:100FB0002F933F934F935F936F937F938F939F9361
:100FC000AF93BF93EF93FF9386E09EE378DAFF91B0
:100FD000EF91BF91AF919F918F917F916F915F91B1
:100FE0004F913F912F910F900FBE0F901F9018952A
:100FF0001F920F920FB60F9211242F933F934F938E
:101000005F936F937F938F939F93AF93BF93EF9370
:10101000FF938091290482FF08C0E0E2F4E081851B
:101020008470818786E09EE3ABDAFF91EF91BF91F8
:10103000AF919F918F917F916F915F914F913F9170
:101040002F910F900FBE0F901F9018956FEF7FEFAD
:1010500081E090E0B6DE08956FEF7FEF80E090E0F2
:10106000B0DE08955058BB27AA270E944A080C9466
:10107000C4090E94B60938F00E94BD0920F039F475
:101080009F3F19F426F40C94B3090EF4E095E7FBA6
:101090000C94AD09E92F0E94D50958F3BA176207DD
:1010A00073078407950720F079F4A6F50C94F709E7
:1010B0000EF4E0950B2EBA2FA02D0B01B901900173
:1010C0000C01CA01A0011124FF27591B99F0593FB7
:1010D00050F4503E68F11A16F040A22F232F342FFF
:1010E0004427585FF3CF469537952795A795F0404D
:1010F0005395C9F77EF41F16BA0B620B730B840B62
:10110000BAF09150A1F0FF0FBB1F661F771F881F19
:10111000C2F70EC0BA0F621F731F841F48F4879571
:1011200077956795B795F7959E3F08F0B0CF939563
:10113000880F08F09927EE0F9795879508950E94DC
:10114000890908F481E008950E94B8080C94C40944
:101150000E94BD0958F00E94B60940F029F45F3F93
:1011600029F00C94AD0951110C94F8090C94B309B1
:101170000E94D50968F39923B1F3552391F3951B88
:10118000550BBB27AA2762177307840738F09F5FA8
:101190005F4F220F331F441FAA1FA9F335D00E2E15
:1011A0003AF0E0E832D091505040E695001CCAF782
:1011B0002BD0FE2F29D0660F771F881FBB1F261745
:1011C00037074807AB07B0E809F0BB0B802DBF011C
:1011D000FF2793585F4F3AF09E3F510578F00C94EB
:1011E000AD090C94F8095F3FE4F3983ED4F386957B
:1011F00077956795B795F7959F5FC9F7880F911D0C
:101200009695879597F90895E1E0660F771F881FF7
:10121000BB1F621773078407BA0720F0621B730BAA
:10122000840BBA0BEE1F88F7E09508950E941D0904
:101230006894B1110C94F80908950E94DD0988F0B2
:101240009F5798F0B92F9927B751B0F0E1F0660F8A
:10125000771F881F991F1AF0BA95C9F714C0B130CB
:1012600091F00E94F709B1E008950C94F709672FF7
:10127000782F8827B85F39F0B93FCCF386957795FA
:101280006795B395D9F73EF49095809570956195E3
:101290007F4F8F4F9F4F0895E89409C097FB3EF40E
:1012A00090958095709561957F4F8F4F9F4F9923B3
:1012B000A9F0F92F96E9BB279395F6958795779531
:1012C0006795B795F111F8CFFAF4BB0F11F460FFF1
:1012D0001BC06F5F7F4F8F4F9F4F16C0882311F049
:1012E00096E911C0772321F09EE8872F762F05C05D
:1012F000662371F096E8862F70E060E02AF09A95F8
:10130000660F771F881FDAF7880F9695879597F9EC
:101310000895990F0008550FAA0BE0E8FEEF161686
:101320001706E807F907C0F012161306E407F507D9
:1013300098F0621B730B840B950B39F40A2661F04D
:10134000232B242B252B21F408950A2609F4A140F0
:10135000A6958FEF811D811D089597F99F6780E8FD
:1013600070E060E008959FEF80EC089500240A94F7
:101370001616170618060906089500240A94121670
:101380001306140605060895092E0394000C11F4A3
:10139000882352F0BB0F40F4BF2B11F460FF04C050
:1013A0006F5F7F4F8F4F9F4F089557FD9058440FA9
:1013B000551F59F05F3F71F04795880F97FB991FB4
:1013C00061F09F3F79F08795089512161306140671
:1013D000551FF2CF4695F1DF08C0161617061806FE
:1013E000991FF1CF86957105610508940895E894D9
:1013F000BB2766277727CB0197F908950E948909B3
:1014000008F48FEF08950E94160A0C94C4090E94F4
:10141000B60938F00E94BD0920F0952311F00C9414
:10142000AD090C94B30911240C94F8090E94D50954
:1014300070F3959FC1F3950F50E0551F629FF00127
:10144000729FBB27F00DB11D639FAA27F00DB11D40
:10145000AA1F649F6627B00DA11D661F829F2227C9
:10146000B00DA11D621F739FB00DA11D621F839F50
:10147000A00D611D221F749F3327A00D611D231F26
:10148000849F600D211D822F762F6A2F11249F5774
:1014900050409AF0F1F088234AF0EE0FFF1FBB1F77
:1014A000661F771F881F91505040A9F79E3F510536
:1014B00080F00C94AD090C94F8095F3FE4F3983E7A
:1014C000D4F3869577956795B795F795E7959F5FE0
:1014D000C1F7FE2B880F911D9695879597F9089572
:1014E00019F416F40C94B3090C94B60A0E94DD09A1
:1014F000B8F39923C9F3B6F39F57550B87FF0E94A2
:10150000C40A0024A0E640EA9001805856959795B9
:1015100028F4805C660F771F881F20F02617370796
:10152000480730F4621B730B840B202931294A2BA6
:10153000A69517940794202531254A2758F7660F5A
:10154000771F881F20F026173707480730F4620BF3
:10155000730B840B200D311D411DA09581F7B9013E
:10156000842F9158880F9695879508959F3F31F065
:10157000915020F4879577956795B795880F911DC1
:101580009695879597F9089591505040660F771F6B
:10159000881FD2F70895AA1BBB1B51E107C0AA1FE1
:1015A000BB1FA617B70710F0A61BB70B881F991F04
:1015B0005A95A9F780959095BC01CD010895EE0F3D
:1015C000FF1F0590F491E02D09940F931F93CF9383
:1015D000DF938230910510F482E090E0E091EE3FDD
:1015E000F091EF3F20E030E0A0E0B0E0309719F15B
:1015F000408151810281138148175907C8F084172F
:10160000950769F4109731F012960C931297139680
:101610001C9327C00093EE3F1093EF3F22C021158B
:10162000310519F04217530718F49A01BD01EF0173
:10163000DF01F801DBCF21153105F9F0281B390B4B
:101640002430310580F48A819B816115710521F078
:10165000FB018283938304C08093EE3F9093EF3F1E
:10166000FE01329644C0FE01E20FF31F8193919375
:1016700022503109288339833AC02091EC3F3091C0
:10168000ED3F232B41F42091023E3091033E209305
:10169000EC3F3093ED3F2091003E3091013E21150B
:1016A000310541F42DB73EB74091043E5091053EBF
:1016B000241B350BE091EC3FF091ED3FE217F3076F
:1016C000A0F42E1B3F0B2817390778F0AC014E5FB2
:1016D0005F4F2417350748F04E0F5F1F4093EC3FD4
:1016E0005093ED3F8193919302C0E0E0F0E0CF0191
:1016F000DF91CF911F910F910895CF93DF930097C2
:1017000009F481C0FC01329712821382A091EE3F4E
:10171000B091EF3F109781F420813181820F931FA8
:101720002091EC3F3091ED3F2817390751F5E093B8
:10173000EC3FF093ED3F67C0ED0120E030E0CE17C5
:10174000DF0740F44A815B819E0141155105F1F0AC
:10175000EA01F5CFC283D38340815181840F951F65
:10176000C817D90759F488819981840F951F02966B
:10177000808391838A819B818283938321153105A4
:1017800029F4E093EE3FF093EF3F3DC0E901EA8397
:10179000FB8349915991C40FD51FEC17FD0761F4E4
:1017A00080819181840F951F0296E9018883998336
:1017B000828193818A839B83E0E0F0E012968D9191
:1017C0009C911397009719F0FD01DC01F7CF8D91E3
:1017D0009C9111979D012E5F3F4F820F931F209187
:1017E000EC3F3091ED3F2817390769F4309729F421
:1017F0001092EE3F1092EF3F02C012821382A0932C
:10180000EC3FB093ED3FDF91CF91089510E0CBE135
:10181000D0E003C0FE01D3DE2196CC31D107D1F751
:04182000F894FFCF6A
:1018240000000000D2015F024A05CD01CF01F9FF9B
:101834000000360601000000000000000000000067
:101844000000000000000000000000000000000094
:101854000000000000000000000000000000000084
:0E18640000000000D20193069206CD01CF01D4
:061872000000F03F200021
:00000001FF
